{
  "_format": "hh-sol-artifact-1",
  "contractName": "FirstNFT",
  "sourceName": "contracts/FirstNFT.sol",
  "abi": [
    {
      "inputs": [],
      "stateMutability": "nonpayable",
      "type": "constructor"
    },
    {
      "anonymous": false,
      "inputs": [
        {
          "indexed": true,
          "internalType": "address",
          "name": "owner",
          "type": "address"
        },
        {
          "indexed": true,
          "internalType": "address",
          "name": "approved",
          "type": "address"
        },
        {
          "indexed": true,
          "internalType": "uint256",
          "name": "tokenId",
          "type": "uint256"
        }
      ],
      "name": "Approval",
      "type": "event"
    },
    {
      "anonymous": false,
      "inputs": [
        {
          "indexed": true,
          "internalType": "address",
          "name": "owner",
          "type": "address"
        },
        {
          "indexed": true,
          "internalType": "address",
          "name": "operator",
          "type": "address"
        },
        {
          "indexed": false,
          "internalType": "bool",
          "name": "approved",
          "type": "bool"
        }
      ],
      "name": "ApprovalForAll",
      "type": "event"
    },
    {
      "anonymous": false,
      "inputs": [
        {
          "indexed": false,
          "internalType": "address",
          "name": "sender",
          "type": "address"
        },
        {
          "indexed": false,
          "internalType": "uint256",
          "name": "tokenID",
          "type": "uint256"
        }
      ],
      "name": "NewFirstNFT",
      "type": "event"
    },
    {
      "anonymous": false,
      "inputs": [
        {
          "indexed": true,
          "internalType": "address",
          "name": "from",
          "type": "address"
        },
        {
          "indexed": true,
          "internalType": "address",
          "name": "to",
          "type": "address"
        },
        {
          "indexed": true,
          "internalType": "uint256",
          "name": "tokenId",
          "type": "uint256"
        }
      ],
      "name": "Transfer",
      "type": "event"
    },
    {
      "inputs": [
        {
          "internalType": "address",
          "name": "to",
          "type": "address"
        },
        {
          "internalType": "uint256",
          "name": "tokenId",
          "type": "uint256"
        }
      ],
      "name": "approve",
      "outputs": [],
      "stateMutability": "nonpayable",
      "type": "function"
    },
    {
      "inputs": [
        {
          "internalType": "address",
          "name": "owner",
          "type": "address"
        }
      ],
      "name": "balanceOf",
      "outputs": [
        {
          "internalType": "uint256",
          "name": "",
          "type": "uint256"
        }
      ],
      "stateMutability": "view",
      "type": "function"
    },
    {
      "inputs": [
        {
          "internalType": "uint256",
          "name": "tokenId",
          "type": "uint256"
        }
      ],
      "name": "getApproved",
      "outputs": [
        {
          "internalType": "address",
          "name": "",
          "type": "address"
        }
      ],
      "stateMutability": "view",
      "type": "function"
    },
    {
      "inputs": [],
      "name": "getTotalNFTs",
      "outputs": [
        {
          "internalType": "uint256",
          "name": "",
          "type": "uint256"
        }
      ],
      "stateMutability": "view",
      "type": "function"
    },
    {
      "inputs": [],
      "name": "getTotalNFTsMintedSoFar",
      "outputs": [
        {
          "internalType": "uint256",
          "name": "",
          "type": "uint256"
        }
      ],
      "stateMutability": "view",
      "type": "function"
    },
    {
      "inputs": [
        {
          "internalType": "address",
          "name": "owner",
          "type": "address"
        },
        {
          "internalType": "address",
          "name": "operator",
          "type": "address"
        }
      ],
      "name": "isApprovedForAll",
      "outputs": [
        {
          "internalType": "bool",
          "name": "",
          "type": "bool"
        }
      ],
      "stateMutability": "view",
      "type": "function"
    },
    {
      "inputs": [],
      "name": "makeNFT",
      "outputs": [],
      "stateMutability": "nonpayable",
      "type": "function"
    },
    {
      "inputs": [],
      "name": "name",
      "outputs": [
        {
          "internalType": "string",
          "name": "",
          "type": "string"
        }
      ],
      "stateMutability": "view",
      "type": "function"
    },
    {
      "inputs": [
        {
          "internalType": "uint256",
          "name": "tokenId",
          "type": "uint256"
        }
      ],
      "name": "ownerOf",
      "outputs": [
        {
          "internalType": "address",
          "name": "",
          "type": "address"
        }
      ],
      "stateMutability": "view",
      "type": "function"
    },
    {
      "inputs": [
        {
          "internalType": "uint256",
          "name": "tokenID",
          "type": "uint256"
        }
      ],
      "name": "pickRandomColor",
      "outputs": [
        {
          "internalType": "string",
          "name": "",
          "type": "string"
        }
      ],
      "stateMutability": "view",
      "type": "function"
    },
    {
      "inputs": [
        {
          "internalType": "uint256",
          "name": "tokenID",
          "type": "uint256"
        }
      ],
      "name": "pickRandomFirstWord",
      "outputs": [
        {
          "internalType": "string",
          "name": "",
          "type": "string"
        }
      ],
      "stateMutability": "view",
      "type": "function"
    },
    {
      "inputs": [
        {
          "internalType": "uint256",
          "name": "tokenID",
          "type": "uint256"
        }
      ],
      "name": "pickRandomSecondWord",
      "outputs": [
        {
          "internalType": "string",
          "name": "",
          "type": "string"
        }
      ],
      "stateMutability": "view",
      "type": "function"
    },
    {
      "inputs": [
        {
          "internalType": "uint256",
          "name": "tokenID",
          "type": "uint256"
        }
      ],
      "name": "pickRandomThirdWord",
      "outputs": [
        {
          "internalType": "string",
          "name": "",
          "type": "string"
        }
      ],
      "stateMutability": "view",
      "type": "function"
    },
    {
      "inputs": [
        {
          "internalType": "address",
          "name": "from",
          "type": "address"
        },
        {
          "internalType": "address",
          "name": "to",
          "type": "address"
        },
        {
          "internalType": "uint256",
          "name": "tokenId",
          "type": "uint256"
        }
      ],
      "name": "safeTransferFrom",
      "outputs": [],
      "stateMutability": "nonpayable",
      "type": "function"
    },
    {
      "inputs": [
        {
          "internalType": "address",
          "name": "from",
          "type": "address"
        },
        {
          "internalType": "address",
          "name": "to",
          "type": "address"
        },
        {
          "internalType": "uint256",
          "name": "tokenId",
          "type": "uint256"
        },
        {
          "internalType": "bytes",
          "name": "_data",
          "type": "bytes"
        }
      ],
      "name": "safeTransferFrom",
      "outputs": [],
      "stateMutability": "nonpayable",
      "type": "function"
    },
    {
      "inputs": [
        {
          "internalType": "address",
          "name": "operator",
          "type": "address"
        },
        {
          "internalType": "bool",
          "name": "approved",
          "type": "bool"
        }
      ],
      "name": "setApprovalForAll",
      "outputs": [],
      "stateMutability": "nonpayable",
      "type": "function"
    },
    {
      "inputs": [
        {
          "internalType": "bytes4",
          "name": "interfaceId",
          "type": "bytes4"
        }
      ],
      "name": "supportsInterface",
      "outputs": [
        {
          "internalType": "bool",
          "name": "",
          "type": "bool"
        }
      ],
      "stateMutability": "view",
      "type": "function"
    },
    {
      "inputs": [],
      "name": "symbol",
      "outputs": [
        {
          "internalType": "string",
          "name": "",
          "type": "string"
        }
      ],
      "stateMutability": "view",
      "type": "function"
    },
    {
      "inputs": [
        {
          "internalType": "uint256",
          "name": "tokenId",
          "type": "uint256"
        }
      ],
      "name": "tokenURI",
      "outputs": [
        {
          "internalType": "string",
          "name": "",
          "type": "string"
        }
      ],
      "stateMutability": "view",
      "type": "function"
    },
    {
      "inputs": [
        {
          "internalType": "address",
          "name": "from",
          "type": "address"
        },
        {
          "internalType": "address",
          "name": "to",
          "type": "address"
        },
        {
          "internalType": "uint256",
          "name": "tokenId",
          "type": "uint256"
        }
      ],
      "name": "transferFrom",
      "outputs": [],
      "stateMutability": "nonpayable",
      "type": "function"
    }
  ],
  "bytecode": "0x6080604052600160085560405180610100016040528060d38152602001620049d060d39139600990805190602001906200003b9291906200093d565b5060405180608001604052806056815260200162004aa360569139600a90805190602001906200006d9291906200093d565b506040518060c001604052806040518060400160405280600381526020017f726564000000000000000000000000000000000000000000000000000000000081525081526020016040518060400160405280600781526020017f233038433241380000000000000000000000000000000000000000000000000081525081526020016040518060400160405280600581526020017f626c61636b00000000000000000000000000000000000000000000000000000081525081526020016040518060400160405280600681526020017f79656c6c6f77000000000000000000000000000000000000000000000000000081525081526020016040518060400160405280600481526020017f626c75650000000000000000000000000000000000000000000000000000000081525081526020016040518060400160405280600581526020017f677265656e000000000000000000000000000000000000000000000000000000815250815250600b906006620001eb929190620009ce565b506040518060e001604052806040518060400160405280600481526020017f44554d420000000000000000000000000000000000000000000000000000000081525081526020016040518060400160405280600481526020017f4e4f4f420000000000000000000000000000000000000000000000000000000081525081526020016040518060400160405280600581526020017f4352415a5900000000000000000000000000000000000000000000000000000081525081526020016040518060400160405280600681526020017f53504f4f4b59000000000000000000000000000000000000000000000000000081525081526020016040518060400160405280600481526020017f57494c440000000000000000000000000000000000000000000000000000000081525081526020016040518060400160405280600981526020017f424c49494e44455253000000000000000000000000000000000000000000000081525081526020016040518060400160405280600881526020017f435241434b494e47000000000000000000000000000000000000000000000000815250815250600c906007620003a492919062000a35565b506040518060e001604052806040518060400160405280600581526020017f50495a5a4100000000000000000000000000000000000000000000000000000081525081526020016040518060400160405280600681526020017f425552474552000000000000000000000000000000000000000000000000000081525081526020016040518060400160405280600581526020017f435552525900000000000000000000000000000000000000000000000000000081525081526020016040518060400160405280600581526020017f53414c414400000000000000000000000000000000000000000000000000000081525081526020016040518060400160405280600681526020017f50414e454552000000000000000000000000000000000000000000000000000081525081526020016040518060400160405280600781526020017f434849434b454e0000000000000000000000000000000000000000000000000081525081526020016040518060400160405280600581526020017f4652494553000000000000000000000000000000000000000000000000000000815250815250600d9060076200055d92919062000a35565b506040518061012001604052806040518060400160405280600581526020017f474156494e00000000000000000000000000000000000000000000000000000081525081526020016040518060400160405280600681526020017f4154334d494e000000000000000000000000000000000000000000000000000081525081526020016040518060400160405280600481526020017f414543480000000000000000000000000000000000000000000000000000000081525081526020016040518060400160405280600381526020017f4a494d000000000000000000000000000000000000000000000000000000000081525081526020016040518060400160405280600681526020017f424541534c59000000000000000000000000000000000000000000000000000081525081526020016040518060400160405280600481526020017f4a4f45590000000000000000000000000000000000000000000000000000000081525081526020016040518060400160405280600481526020017f524f53530000000000000000000000000000000000000000000000000000000081525081526020016040518060400160405280600581526020017f4b454e4e5900000000000000000000000000000000000000000000000000000081525081526020016040518060400160405280600581526020017f4249535741000000000000000000000000000000000000000000000000000000815250815250600e9060096200078d92919062000a9c565b503480156200079b57600080fd5b506040518060400160405280600a81526020017f437269636b65744e4654000000000000000000000000000000000000000000008152506040518060400160405280600781526020017f435249434b4554000000000000000000000000000000000000000000000000008152508160009080519060200190620008209291906200093d565b508060019080519060200190620008399291906200093d565b5050506200086b604051806060016040528060288152602001620049a8602891396200087160201b620012e81760201c565b62000cbd565b620009118160405160240162000888919062000bd1565b6040516020818303038152906040527f41304fac000000000000000000000000000000000000000000000000000000007bffffffffffffffffffffffffffffffffffffffffffffffffffffffff19166020820180517bffffffffffffffffffffffffffffffffffffffffffffffffffffffff83818316178352505050506200091460201b60201c565b50565b60008151905060006a636f6e736f6c652e6c6f679050602083016000808483855afa5050505050565b8280546200094b9062000c47565b90600052602060002090601f0160209004810192826200096f5760008555620009bb565b82601f106200098a57805160ff1916838001178555620009bb565b82800160010185558215620009bb579182015b82811115620009ba5782518255916020019190600101906200099d565b5b509050620009ca919062000b03565b5090565b82805482825590600052602060002090810192821562000a22579160200282015b8281111562000a2157825182908051906020019062000a109291906200093d565b5091602001919060010190620009ef565b5b50905062000a31919062000b22565b5090565b82805482825590600052602060002090810192821562000a89579160200282015b8281111562000a8857825182908051906020019062000a779291906200093d565b509160200191906001019062000a56565b5b50905062000a98919062000b22565b5090565b82805482825590600052602060002090810192821562000af0579160200282015b8281111562000aef57825182908051906020019062000ade9291906200093d565b509160200191906001019062000abd565b5b50905062000aff919062000b22565b5090565b5b8082111562000b1e57600081600090555060010162000b04565b5090565b5b8082111562000b46576000818162000b3c919062000b4a565b5060010162000b23565b5090565b50805462000b589062000c47565b6000825580601f1062000b6c575062000b8d565b601f01602090049060005260206000209081019062000b8c919062000b03565b5b50565b600062000b9d8262000bf5565b62000ba9818562000c00565b935062000bbb81856020860162000c11565b62000bc68162000cac565b840191505092915050565b6000602082019050818103600083015262000bed818462000b90565b905092915050565b600081519050919050565b600082825260208201905092915050565b60005b8381101562000c3157808201518184015260208101905062000c14565b8381111562000c41576000848401525b50505050565b6000600282049050600182168062000c6057607f821691505b6020821081141562000c775762000c7662000c7d565b5b50919050565b7f4e487b7100000000000000000000000000000000000000000000000000000000600052602260045260246000fd5b6000601f19601f8301169050919050565b613cdb8062000ccd6000396000f3fe608060405234801561001057600080fd5b506004361061012c5760003560e01c80636352211e116100ad578063b187301f11610071578063b187301f14610343578063b88d4fde14610373578063c575757a1461038f578063c87b56dd146103bf578063e985e9c5146103ef5761012c565b80636352211e1461029f57806370a08231146102cf57806395d89b41146102ff578063a22cb4651461031d578063b036b4bd146103395761012c565b806323b872dd116100f457806323b872dd146101e95780632de38d681461020557806330bdb3511461023557806342842e0e14610253578063514dc8c61461026f5761012c565b806301ffc9a714610131578063060475901461016157806306fdde031461017f578063081812fc1461019d578063095ea7b3146101cd575b600080fd5b61014b600480360381019061014691906126f5565b61041f565b6040516101589190612e81565b60405180910390f35b610169610501565b604051610176919061311c565b60405180910390f35b610187610512565b6040516101949190612e9c565b60405180910390f35b6101b760048036038101906101b29190612747565b6105a4565b6040516101c49190612df1565b60405180910390f35b6101e760048036038101906101e291906126b9565b610629565b005b61020360048036038101906101fe91906125b3565b610741565b005b61021f600480360381019061021a9190612747565b6107a1565b60405161022c9190612e9c565b60405180910390f35b61023d6108bf565b60405161024a919061311c565b60405180910390f35b61026d600480360381019061026891906125b3565b6108c9565b005b61028960048036038101906102849190612747565b6108e9565b6040516102969190612e9c565b60405180910390f35b6102b960048036038101906102b49190612747565b610a07565b6040516102c69190612df1565b60405180910390f35b6102e960048036038101906102e4919061254e565b610ab9565b6040516102f6919061311c565b60405180910390f35b610307610b71565b6040516103149190612e9c565b60405180910390f35b6103376004803603810190610332919061267d565b610c03565b005b610341610c19565b005b61035d60048036038101906103589190612747565b610e64565b60405161036a9190612e9c565b60405180910390f35b61038d60048036038101906103889190612602565b610f82565b005b6103a960048036038101906103a49190612747565b610fe4565b6040516103b69190612e9c565b60405180910390f35b6103d960048036038101906103d49190612747565b611102565b6040516103e69190612e9c565b60405180910390f35b61040960048036038101906104049190612577565b611254565b6040516104169190612e81565b60405180910390f35b60007f80ac58cd000000000000000000000000000000000000000000000000000000007bffffffffffffffffffffffffffffffffffffffffffffffffffffffff1916827bffffffffffffffffffffffffffffffffffffffffffffffffffffffff191614806104ea57507f5b5e139f000000000000000000000000000000000000000000000000000000007bffffffffffffffffffffffffffffffffffffffffffffffffffffffff1916827bffffffffffffffffffffffffffffffffffffffffffffffffffffffff1916145b806104fa57506104f982611381565b5b9050919050565b600061050d60076113eb565b905090565b606060008054610521906133b0565b80601f016020809104026020016040519081016040528092919081815260200182805461054d906133b0565b801561059a5780601f1061056f5761010080835404028352916020019161059a565b820191906000526020600020905b81548152906001019060200180831161057d57829003601f168201915b5050505050905090565b60006105af826113f9565b6105ee576040517f08c379a00000000000000000000000000000000000000000000000000000000081526004016105e59061309c565b60405180910390fd5b6004600083815260200190815260200160002060009054906101000a900473ffffffffffffffffffffffffffffffffffffffff169050919050565b600061063482610a07565b90508073ffffffffffffffffffffffffffffffffffffffff168373ffffffffffffffffffffffffffffffffffffffff1614156106a5576040517f08c379a000000000000000000000000000000000000000000000000000000000815260040161069c906130dc565b60405180910390fd5b8073ffffffffffffffffffffffffffffffffffffffff166106c4611465565b73ffffffffffffffffffffffffffffffffffffffff1614806106f357506106f2816106ed611465565b611254565b5b610732576040517f08c379a000000000000000000000000000000000000000000000000000000000815260040161072990612fbc565b60405180910390fd5b61073c838361146d565b505050565b61075261074c611465565b82611526565b610791576040517f08c379a0000000000000000000000000000000000000000000000000000000008152600401610788906130fc565b60405180910390fd5b61079c838383611604565b505050565b606060006107d56107b18461186b565b6040516020016107c19190612d8b565b604051602081830303815290604052611a18565b9050600c80549050816107e8919061345c565b9050600c8181548110610824577f4e487b7100000000000000000000000000000000000000000000000000000000600052603260045260246000fd5b906000526020600020018054610839906133b0565b80601f0160208091040260200160405190810160405280929190818152602001828054610865906133b0565b80156108b25780601f10610887576101008083540402835291602001916108b2565b820191906000526020600020905b81548152906001019060200180831161089557829003601f168201915b5050505050915050919050565b6000600854905090565b6108e483838360405180602001604052806000815250610f82565b505050565b6060600061091d6108f98461186b565b6040516020016109099190612dcf565b604051602081830303815290604052611a18565b9050600b8054905081610930919061345c565b9050600b818154811061096c577f4e487b7100000000000000000000000000000000000000000000000000000000600052603260045260246000fd5b906000526020600020018054610981906133b0565b80601f01602080910402602001604051908101604052809291908181526020018280546109ad906133b0565b80156109fa5780601f106109cf576101008083540402835291602001916109fa565b820191906000526020600020905b8154815290600101906020018083116109dd57829003601f168201915b5050505050915050919050565b6000806002600084815260200190815260200160002060009054906101000a900473ffffffffffffffffffffffffffffffffffffffff169050600073ffffffffffffffffffffffffffffffffffffffff168173ffffffffffffffffffffffffffffffffffffffff161415610ab0576040517f08c379a0000000000000000000000000000000000000000000000000000000008152600401610aa790612ffc565b60405180910390fd5b80915050919050565b60008073ffffffffffffffffffffffffffffffffffffffff168273ffffffffffffffffffffffffffffffffffffffff161415610b2a576040517f08c379a0000000000000000000000000000000000000000000000000000000008152600401610b2190612fdc565b60405180910390fd5b600360008373ffffffffffffffffffffffffffffffffffffffff1673ffffffffffffffffffffffffffffffffffffffff168152602001908152602001600020549050919050565b606060018054610b80906133b0565b80601f0160208091040260200160405190810160405280929190818152602001828054610bac906133b0565b8015610bf95780601f10610bce57610100808354040283529160200191610bf9565b820191906000526020600020905b815481529060010190602001808311610bdc57829003601f168201915b5050505050905090565b610c15610c0e611465565b8383611a4b565b5050565b6000610c2560076113eb565b9050600854600182610c3791906131e5565b1115610c78576040517f08c379a0000000000000000000000000000000000000000000000000000000008152600401610c6f9061307c565b60405180910390fd5b6000610c83826107a1565b90506000610c9083610e64565b90506000610c9d84610fe4565b90506000838383604051602001610cb693929190612c88565b60405160208183030381529060405290506000610cd2866108e9565b90506000600982600a85604051602001610cef9493929190612cb9565b60405160208183030381529060405290506000610d3484610d0f84611bb8565b604051602001610d20929190612d46565b604051602081830303815290604052611bb8565b9050600081604051602001610d499190612dad565b6040516020818303038152906040529050610d986040518060400160405280601581526020017f0a2d2d2d2d2d2d2d2d2d2d2d2d2d2d2d2d2d2d2d2d00000000000000000000008152506112e8565b610da1816112e8565b610ddf6040518060400160405280601581526020017f2d2d2d2d2d2d2d2d2d2d2d2d2d2d2d2d2d2d2d2d0a00000000000000000000008152506112e8565b610de9338a611d57565b610df38982611d75565b610dfd6007611de9565b610e20604051806060016040528060258152602001613c41602591398a33611dff565b7f59e37b7da6b2d98a6501a9de41cd81aafe76c61168ea59886662e11a1ab610cd338a604051610e51929190612e58565b60405180910390a1505050505050505050565b60606000610e98610e748461186b565b604051602001610e849190612d24565b604051602081830303815290604052611a18565b9050600d8054905081610eab919061345c565b9050600d8181548110610ee7577f4e487b7100000000000000000000000000000000000000000000000000000000600052603260045260246000fd5b906000526020600020018054610efc906133b0565b80601f0160208091040260200160405190810160405280929190818152602001828054610f28906133b0565b8015610f755780601f10610f4a57610100808354040283529160200191610f75565b820191906000526020600020905b815481529060010190602001808311610f5857829003601f168201915b5050505050915050919050565b610f93610f8d611465565b83611526565b610fd2576040517f08c379a0000000000000000000000000000000000000000000000000000000008152600401610fc9906130fc565b60405180910390fd5b610fde84848484611e9e565b50505050565b60606000611018610ff48461186b565b6040516020016110049190612d02565b604051602081830303815290604052611a18565b9050600e805490508161102b919061345c565b9050600e8181548110611067577f4e487b7100000000000000000000000000000000000000000000000000000000600052603260045260246000fd5b90600052602060002001805461107c906133b0565b80601f01602080910402602001604051908101604052809291908181526020018280546110a8906133b0565b80156110f55780601f106110ca576101008083540402835291602001916110f5565b820191906000526020600020905b8154815290600101906020018083116110d857829003601f168201915b5050505050915050919050565b606061110d826113f9565b61114c576040517f08c379a00000000000000000000000000000000000000000000000000000000081526004016111439061305c565b60405180910390fd5b600060066000848152602001908152602001600020805461116c906133b0565b80601f0160208091040260200160405190810160405280929190818152602001828054611198906133b0565b80156111e55780601f106111ba576101008083540402835291602001916111e5565b820191906000526020600020905b8154815290600101906020018083116111c857829003601f168201915b5050505050905060006111f6611efa565b905060008151141561120c57819250505061124f565b600082511115611241578082604051602001611229929190612c64565b6040516020818303038152906040529250505061124f565b61124a84611f11565b925050505b919050565b6000600560008473ffffffffffffffffffffffffffffffffffffffff1673ffffffffffffffffffffffffffffffffffffffff16815260200190815260200160002060008373ffffffffffffffffffffffffffffffffffffffff1673ffffffffffffffffffffffffffffffffffffffff16815260200190815260200160002060009054906101000a900460ff16905092915050565b61137e816040516024016112fc9190612e9c565b6040516020818303038152906040527f41304fac000000000000000000000000000000000000000000000000000000007bffffffffffffffffffffffffffffffffffffffffffffffffffffffff19166020820180517bffffffffffffffffffffffffffffffffffffffffffffffffffffffff8381831617835250505050611fb8565b50565b60007f01ffc9a7000000000000000000000000000000000000000000000000000000007bffffffffffffffffffffffffffffffffffffffffffffffffffffffff1916827bffffffffffffffffffffffffffffffffffffffffffffffffffffffff1916149050919050565b600081600001549050919050565b60008073ffffffffffffffffffffffffffffffffffffffff166002600084815260200190815260200160002060009054906101000a900473ffffffffffffffffffffffffffffffffffffffff1673ffffffffffffffffffffffffffffffffffffffff1614159050919050565b600033905090565b816004600083815260200190815260200160002060006101000a81548173ffffffffffffffffffffffffffffffffffffffff021916908373ffffffffffffffffffffffffffffffffffffffff160217905550808273ffffffffffffffffffffffffffffffffffffffff166114e083610a07565b73ffffffffffffffffffffffffffffffffffffffff167f8c5be1e5ebec7d5bd14f71427d1e84f3dd0314c0f7b2291e5b200ac8c7c3b92560405160405180910390a45050565b6000611531826113f9565b611570576040517f08c379a000000000000000000000000000000000000000000000000000000000815260040161156790612f9c565b60405180910390fd5b600061157b83610a07565b90508073ffffffffffffffffffffffffffffffffffffffff168473ffffffffffffffffffffffffffffffffffffffff1614806115ea57508373ffffffffffffffffffffffffffffffffffffffff166115d2846105a4565b73ffffffffffffffffffffffffffffffffffffffff16145b806115fb57506115fa8185611254565b5b91505092915050565b8273ffffffffffffffffffffffffffffffffffffffff1661162482610a07565b73ffffffffffffffffffffffffffffffffffffffff161461167a576040517f08c379a000000000000000000000000000000000000000000000000000000000815260040161167190612f1c565b60405180910390fd5b600073ffffffffffffffffffffffffffffffffffffffff168273ffffffffffffffffffffffffffffffffffffffff1614156116ea576040517f08c379a00000000000000000000000000000000000000000000000000000000081526004016116e190612f5c565b60405180910390fd5b6116f5838383611fe1565b61170060008261146d565b6001600360008573ffffffffffffffffffffffffffffffffffffffff1673ffffffffffffffffffffffffffffffffffffffff168152602001908152602001600020600082825461175091906132c6565b925050819055506001600360008473ffffffffffffffffffffffffffffffffffffffff1673ffffffffffffffffffffffffffffffffffffffff16815260200190815260200160002060008282546117a791906131e5565b92505081905550816002600083815260200190815260200160002060006101000a81548173ffffffffffffffffffffffffffffffffffffffff021916908373ffffffffffffffffffffffffffffffffffffffff160217905550808273ffffffffffffffffffffffffffffffffffffffff168473ffffffffffffffffffffffffffffffffffffffff167fddf252ad1be2c89b69c2b068fc378daa952ba7f163c4a11628f55a4df523b3ef60405160405180910390a4611866838383611fe6565b505050565b606060008214156118b3576040518060400160405280600181526020017f30000000000000000000000000000000000000000000000000000000000000008152509050611a13565b600082905060005b600082146118e55780806118ce90613413565b915050600a826118de919061323b565b91506118bb565b60008167ffffffffffffffff811115611927577f4e487b7100000000000000000000000000000000000000000000000000000000600052604160045260246000fd5b6040519080825280601f01601f1916602001820160405280156119595781602001600182028036833780820191505090505b5090505b60008514611a0c5760018261197291906132c6565b9150600a85611981919061345c565b603061198d91906131e5565b60f81b8183815181106119c9577f4e487b7100000000000000000000000000000000000000000000000000000000600052603260045260246000fd5b60200101907effffffffffffffffffffffffffffffffffffffffffffffffffffffffffffff1916908160001a905350600a85611a05919061323b565b945061195d565b8093505050505b919050565b600081604051602001611a2b9190612c4d565b6040516020818303038152906040528051906020012060001c9050919050565b8173ffffffffffffffffffffffffffffffffffffffff168373ffffffffffffffffffffffffffffffffffffffff161415611aba576040517f08c379a0000000000000000000000000000000000000000000000000000000008152600401611ab190612f7c565b60405180910390fd5b80600560008573ffffffffffffffffffffffffffffffffffffffff1673ffffffffffffffffffffffffffffffffffffffff16815260200190815260200160002060008473ffffffffffffffffffffffffffffffffffffffff1673ffffffffffffffffffffffffffffffffffffffff16815260200190815260200160002060006101000a81548160ff0219169083151502179055508173ffffffffffffffffffffffffffffffffffffffff168373ffffffffffffffffffffffffffffffffffffffff167f17307eab39ab6107e8899845ad3d59bd9653f200f220920489ca2b5937696c3183604051611bab9190612e81565b60405180910390a3505050565b6060600082511415611bdb57604051806020016040528060008152509050611d52565b6000604051806060016040528060408152602001613c666040913990506000600360028551611c0a91906131e5565b611c14919061323b565b6004611c20919061326c565b90506000602082611c3191906131e5565b67ffffffffffffffff811115611c70577f4e487b7100000000000000000000000000000000000000000000000000000000600052604160045260246000fd5b6040519080825280601f01601f191660200182016040528015611ca25781602001600182028036833780820191505090505b509050818152600183018586518101602084015b81831015611d11576003830192508251603f8160121c168501518253600182019150603f81600c1c168501518253600182019150603f8160061c168501518253600182019150603f8116850151825360018201915050611cb6565b600389510660018114611d2b5760028114611d3b57611d46565b613d3d60f01b6002830352611d46565b603d60f81b60018303525b50505050508093505050505b919050565b611d71828260405180602001604052806000815250611feb565b5050565b611d7e826113f9565b611dbd576040517f08c379a0000000000000000000000000000000000000000000000000000000008152600401611db49061301c565b60405180910390fd5b80600660008481526020019081526020016000209080519060200190611de49291906123da565b505050565b6001816000016000828254019250508190555050565b611e99838383604051602401611e1793929190612ebe565b6040516020818303038152906040527fe3849f79000000000000000000000000000000000000000000000000000000007bffffffffffffffffffffffffffffffffffffffffffffffffffffffff19166020820180517bffffffffffffffffffffffffffffffffffffffffffffffffffffffff8381831617835250505050611fb8565b505050565b611ea9848484611604565b611eb584848484612046565b611ef4576040517f08c379a0000000000000000000000000000000000000000000000000000000008152600401611eeb90612efc565b60405180910390fd5b50505050565b606060405180602001604052806000815250905090565b6060611f1c826113f9565b611f5b576040517f08c379a0000000000000000000000000000000000000000000000000000000008152600401611f52906130bc565b60405180910390fd5b6000611f65611efa565b90506000815111611f855760405180602001604052806000815250611fb0565b80611f8f8461186b565b604051602001611fa0929190612c64565b6040516020818303038152906040525b915050919050565b60008151905060006a636f6e736f6c652e6c6f679050602083016000808483855afa5050505050565b505050565b505050565b611ff583836121dd565b6120026000848484612046565b612041576040517f08c379a000000000000000000000000000000000000000000000000000000000815260040161203890612efc565b60405180910390fd5b505050565b60006120678473ffffffffffffffffffffffffffffffffffffffff166123b7565b156121d0578373ffffffffffffffffffffffffffffffffffffffff1663150b7a02612090611465565b8786866040518563ffffffff1660e01b81526004016120b29493929190612e0c565b602060405180830381600087803b1580156120cc57600080fd5b505af19250505080156120fd57506040513d601f19601f820116820180604052508101906120fa919061271e565b60015b612180573d806000811461212d576040519150601f19603f3d011682016040523d82523d6000602084013e612132565b606091505b50600081511415612178576040517f08c379a000000000000000000000000000000000000000000000000000000000815260040161216f90612efc565b60405180910390fd5b805181602001fd5b63150b7a0260e01b7bffffffffffffffffffffffffffffffffffffffffffffffffffffffff1916817bffffffffffffffffffffffffffffffffffffffffffffffffffffffff1916149150506121d5565b600190505b949350505050565b600073ffffffffffffffffffffffffffffffffffffffff168273ffffffffffffffffffffffffffffffffffffffff16141561224d576040517f08c379a00000000000000000000000000000000000000000000000000000000081526004016122449061303c565b60405180910390fd5b612256816113f9565b15612296576040517f08c379a000000000000000000000000000000000000000000000000000000000815260040161228d90612f3c565b60405180910390fd5b6122a260008383611fe1565b6001600360008473ffffffffffffffffffffffffffffffffffffffff1673ffffffffffffffffffffffffffffffffffffffff16815260200190815260200160002060008282546122f291906131e5565b92505081905550816002600083815260200190815260200160002060006101000a81548173ffffffffffffffffffffffffffffffffffffffff021916908373ffffffffffffffffffffffffffffffffffffffff160217905550808273ffffffffffffffffffffffffffffffffffffffff16600073ffffffffffffffffffffffffffffffffffffffff167fddf252ad1be2c89b69c2b068fc378daa952ba7f163c4a11628f55a4df523b3ef60405160405180910390a46123b360008383611fe6565b5050565b6000808273ffffffffffffffffffffffffffffffffffffffff163b119050919050565b8280546123e6906133b0565b90600052602060002090601f016020900481019282612408576000855561244f565b82601f1061242157805160ff191683800117855561244f565b8280016001018555821561244f579182015b8281111561244e578251825591602001919060010190612433565b5b50905061245c9190612460565b5090565b5b80821115612479576000816000905550600101612461565b5090565b600061249061248b8461315c565b613137565b9050828152602081018484840111156124a857600080fd5b6124b384828561336e565b509392505050565b6000813590506124ca81613be4565b92915050565b6000813590506124df81613bfb565b92915050565b6000813590506124f481613c12565b92915050565b60008151905061250981613c12565b92915050565b600082601f83011261252057600080fd5b813561253084826020860161247d565b91505092915050565b60008135905061254881613c29565b92915050565b60006020828403121561256057600080fd5b600061256e848285016124bb565b91505092915050565b6000806040838503121561258a57600080fd5b6000612598858286016124bb565b92505060206125a9858286016124bb565b9150509250929050565b6000806000606084860312156125c857600080fd5b60006125d6868287016124bb565b93505060206125e7868287016124bb565b92505060406125f886828701612539565b9150509250925092565b6000806000806080858703121561261857600080fd5b6000612626878288016124bb565b9450506020612637878288016124bb565b935050604061264887828801612539565b925050606085013567ffffffffffffffff81111561266557600080fd5b6126718782880161250f565b91505092959194509250565b6000806040838503121561269057600080fd5b600061269e858286016124bb565b92505060206126af858286016124d0565b9150509250929050565b600080604083850312156126cc57600080fd5b60006126da858286016124bb565b92505060206126eb85828601612539565b9150509250929050565b60006020828403121561270757600080fd5b6000612715848285016124e5565b91505092915050565b60006020828403121561273057600080fd5b600061273e848285016124fa565b91505092915050565b60006020828403121561275957600080fd5b600061276784828501612539565b91505092915050565b612779816132fa565b82525050565b6127888161330c565b82525050565b6000612799826131a2565b6127a381856131b8565b93506127b381856020860161337d565b6127bc81613549565b840191505092915050565b60006127d2826131ad565b6127dc81856131c9565b93506127ec81856020860161337d565b6127f581613549565b840191505092915050565b600061280b826131ad565b61281581856131da565b935061282581856020860161337d565b80840191505092915050565b6000815461283e816133b0565b61284881866131da565b945060018216600081146128635760018114612874576128a7565b60ff198316865281860193506128a7565b61287d8561318d565b60005b8381101561289f57815481890152600182019150602081019050612880565b838801955050505b50505092915050565b60006128bd6032836131c9565b91506128c88261355a565b604082019050919050565b60006128e06025836131c9565b91506128eb826135a9565b604082019050919050565b6000612903601c836131c9565b915061290e826135f8565b602082019050919050565b6000612926600a836131da565b915061293182613621565b600a82019050919050565b60006129496024836131c9565b91506129548261364a565b604082019050919050565b600061296c6019836131c9565b915061297782613699565b602082019050919050565b600061298f6063836131da565b915061299a826136c2565b606382019050919050565b60006129b2600b836131da565b91506129bd8261375d565b600b82019050919050565b60006129d5602c836131c9565b91506129e082613786565b604082019050919050565b60006129f8600d836131da565b9150612a03826137d5565b600d82019050919050565b6000612a1b6038836131c9565b9150612a26826137fe565b604082019050919050565b6000612a3e602a836131c9565b9150612a498261384d565b604082019050919050565b6000612a616029836131c9565b9150612a6c8261389c565b604082019050919050565b6000612a84602e836131c9565b9150612a8f826138eb565b604082019050919050565b6000612aa76002836131da565b9150612ab28261393a565b600282019050919050565b6000612aca6020836131c9565b9150612ad582613963565b602082019050919050565b6000612aed6031836131c9565b9150612af88261398c565b604082019050919050565b6000612b106014836131c9565b9150612b1b826139db565b602082019050919050565b6000612b33602c836131c9565b9150612b3e82613a04565b604082019050919050565b6000612b56602f836131c9565b9150612b6182613a53565b604082019050919050565b6000612b79600a836131da565b9150612b8482613aa2565b600a82019050919050565b6000612b9c6021836131c9565b9150612ba782613acb565b604082019050919050565b6000612bbf600a836131da565b9150612bca82613b1a565b600a82019050919050565b6000612be2601d836131da565b9150612bed82613b43565b601d82019050919050565b6000612c056031836131c9565b9150612c1082613b6c565b604082019050919050565b6000612c286005836131da565b9150612c3382613bbb565b600582019050919050565b612c4781613364565b82525050565b6000612c598284612800565b915081905092915050565b6000612c708285612800565b9150612c7c8284612800565b91508190509392505050565b6000612c948286612800565b9150612ca08285612800565b9150612cac8284612800565b9150819050949350505050565b6000612cc58287612831565b9150612cd18286612800565b9150612cdd8285612831565b9150612ce98284612800565b9150612cf4826129eb565b915081905095945050505050565b6000612d0d82612919565b9150612d198284612800565b915081905092915050565b6000612d2f826129a5565b9150612d3b8284612800565b915081905092915050565b6000612d5182612b6c565b9150612d5d8285612800565b9150612d6882612982565b9150612d748284612800565b9150612d7f82612a9a565b91508190509392505050565b6000612d9682612bb2565b9150612da28284612800565b915081905092915050565b6000612db882612bd5565b9150612dc48284612800565b915081905092915050565b6000612dda82612c1b565b9150612de68284612800565b915081905092915050565b6000602082019050612e066000830184612770565b92915050565b6000608082019050612e216000830187612770565b612e2e6020830186612770565b612e3b6040830185612c3e565b8181036060830152612e4d818461278e565b905095945050505050565b6000604082019050612e6d6000830185612770565b612e7a6020830184612c3e565b9392505050565b6000602082019050612e96600083018461277f565b92915050565b60006020820190508181036000830152612eb681846127c7565b905092915050565b60006060820190508181036000830152612ed881866127c7565b9050612ee76020830185612c3e565b612ef46040830184612770565b949350505050565b60006020820190508181036000830152612f15816128b0565b9050919050565b60006020820190508181036000830152612f35816128d3565b9050919050565b60006020820190508181036000830152612f55816128f6565b9050919050565b60006020820190508181036000830152612f758161293c565b9050919050565b60006020820190508181036000830152612f958161295f565b9050919050565b60006020820190508181036000830152612fb5816129c8565b9050919050565b60006020820190508181036000830152612fd581612a0e565b9050919050565b60006020820190508181036000830152612ff581612a31565b9050919050565b6000602082019050818103600083015261301581612a54565b9050919050565b6000602082019050818103600083015261303581612a77565b9050919050565b6000602082019050818103600083015261305581612abd565b9050919050565b6000602082019050818103600083015261307581612ae0565b9050919050565b6000602082019050818103600083015261309581612b03565b9050919050565b600060208201905081810360008301526130b581612b26565b9050919050565b600060208201905081810360008301526130d581612b49565b9050919050565b600060208201905081810360008301526130f581612b8f565b9050919050565b6000602082019050818103600083015261311581612bf8565b9050919050565b60006020820190506131316000830184612c3e565b92915050565b6000613141613152565b905061314d82826133e2565b919050565b6000604051905090565b600067ffffffffffffffff8211156131775761317661351a565b5b61318082613549565b9050602081019050919050565b60008190508160005260206000209050919050565b600081519050919050565b600081519050919050565b600082825260208201905092915050565b600082825260208201905092915050565b600081905092915050565b60006131f082613364565b91506131fb83613364565b9250827fffffffffffffffffffffffffffffffffffffffffffffffffffffffffffffffff038211156132305761322f61348d565b5b828201905092915050565b600061324682613364565b915061325183613364565b925082613261576132606134bc565b5b828204905092915050565b600061327782613364565b915061328283613364565b9250817fffffffffffffffffffffffffffffffffffffffffffffffffffffffffffffffff04831182151516156132bb576132ba61348d565b5b828202905092915050565b60006132d182613364565b91506132dc83613364565b9250828210156132ef576132ee61348d565b5b828203905092915050565b600061330582613344565b9050919050565b60008115159050919050565b60007fffffffff0000000000000000000000000000000000000000000000000000000082169050919050565b600073ffffffffffffffffffffffffffffffffffffffff82169050919050565b6000819050919050565b82818337600083830152505050565b60005b8381101561339b578082015181840152602081019050613380565b838111156133aa576000848401525b50505050565b600060028204905060018216806133c857607f821691505b602082108114156133dc576133db6134eb565b5b50919050565b6133eb82613549565b810181811067ffffffffffffffff8211171561340a5761340961351a565b5b80604052505050565b600061341e82613364565b91507fffffffffffffffffffffffffffffffffffffffffffffffffffffffffffffffff8214156134515761345061348d565b5b600182019050919050565b600061346782613364565b915061347283613364565b925082613482576134816134bc565b5b828206905092915050565b7f4e487b7100000000000000000000000000000000000000000000000000000000600052601160045260246000fd5b7f4e487b7100000000000000000000000000000000000000000000000000000000600052601260045260246000fd5b7f4e487b7100000000000000000000000000000000000000000000000000000000600052602260045260246000fd5b7f4e487b7100000000000000000000000000000000000000000000000000000000600052604160045260246000fd5b6000601f19601f8301169050919050565b7f4552433732313a207472616e7366657220746f206e6f6e20455243373231526560008201527f63656976657220696d706c656d656e7465720000000000000000000000000000602082015250565b7f4552433732313a207472616e736665722066726f6d20696e636f72726563742060008201527f6f776e6572000000000000000000000000000000000000000000000000000000602082015250565b7f4552433732313a20746f6b656e20616c7265616479206d696e74656400000000600082015250565b7f54484952445f574f524400000000000000000000000000000000000000000000600082015250565b7f4552433732313a207472616e7366657220746f20746865207a65726f2061646460008201527f7265737300000000000000000000000000000000000000000000000000000000602082015250565b7f4552433732313a20617070726f766520746f2063616c6c657200000000000000600082015250565b7f222c20226465736372697074696f6e223a20224120686967686c79206163636c60008201527f61696d656420636f6c6c656374696f6e206f6620737175617265732e222c202260208201527f696d616765223a2022646174613a696d6167652f7376672b786d6c3b6261736560408201527f36342c0000000000000000000000000000000000000000000000000000000000606082015250565b7f5345434f4e445f574f5244000000000000000000000000000000000000000000600082015250565b7f4552433732313a206f70657261746f7220717565727920666f72206e6f6e657860008201527f697374656e7420746f6b656e0000000000000000000000000000000000000000602082015250565b7f3c2f746578743e3c2f7376673e00000000000000000000000000000000000000600082015250565b7f4552433732313a20617070726f76652063616c6c6572206973206e6f74206f7760008201527f6e6572206e6f7220617070726f76656420666f7220616c6c0000000000000000602082015250565b7f4552433732313a2062616c616e636520717565727920666f7220746865207a6560008201527f726f206164647265737300000000000000000000000000000000000000000000602082015250565b7f4552433732313a206f776e657220717565727920666f72206e6f6e657869737460008201527f656e7420746f6b656e0000000000000000000000000000000000000000000000602082015250565b7f45524337323155524953746f726167653a2055524920736574206f66206e6f6e60008201527f6578697374656e7420746f6b656e000000000000000000000000000000000000602082015250565b7f227d000000000000000000000000000000000000000000000000000000000000600082015250565b7f4552433732313a206d696e7420746f20746865207a65726f2061646472657373600082015250565b7f45524337323155524953746f726167653a2055524920717565727920666f722060008201527f6e6f6e6578697374656e7420746f6b656e000000000000000000000000000000602082015250565b7f4d6178696d756d206d696e747320726561636564000000000000000000000000600082015250565b7f4552433732313a20617070726f76656420717565727920666f72206e6f6e657860008201527f697374656e7420746f6b656e0000000000000000000000000000000000000000602082015250565b7f4552433732314d657461646174613a2055524920717565727920666f72206e6f60008201527f6e6578697374656e7420746f6b656e0000000000000000000000000000000000602082015250565b7f7b226e616d65223a202200000000000000000000000000000000000000000000600082015250565b7f4552433732313a20617070726f76616c20746f2063757272656e74206f776e6560008201527f7200000000000000000000000000000000000000000000000000000000000000602082015250565b7f46495253545f574f524400000000000000000000000000000000000000000000600082015250565b7f646174613a6170706c69636174696f6e2f6a736f6e3b6261736536342c000000600082015250565b7f4552433732313a207472616e736665722063616c6c6572206973206e6f74206f60008201527f776e6572206e6f7220617070726f766564000000000000000000000000000000602082015250565b7f434f4c4f52000000000000000000000000000000000000000000000000000000600082015250565b613bed816132fa565b8114613bf857600080fd5b50565b613c048161330c565b8114613c0f57600080fd5b50565b613c1b81613318565b8114613c2657600080fd5b50565b613c3281613364565b8114613c3d57600080fd5b5056fe416e204e465420772f20494420257320686173206265656e206d696e74656420746f2025734142434445464748494a4b4c4d4e4f505152535455565758595a6162636465666768696a6b6c6d6e6f707172737475767778797a303132333435363738392b2fa26469706673582212207d1e7fac9bf0e89dc2f8c79fd47c7687b42935d354dfa178dc2e489c017e2ab864736f6c6343000804003354686973206973206d79206669727374204e465420636f6465206c6f6721212121212121212121213c73766720786d6c6e733d27687474703a2f2f7777772e77332e6f72672f323030302f73766727207072657365727665417370656374526174696f3d27784d696e594d696e206d656574272076696577426f783d273020302033353020333530273e3c7374796c653e2e62617365207b2066696c6c3a2077686974653b20666f6e742d66616d696c793a2073657269663b20666f6e742d73697a653a20323470783b207d3c2f7374796c653e3c726563742077696474683d273130302527206865696768743d2731303025272066696c6c3d27272f3e3c7465787420783d273530252720793d273530252720636c6173733d27626173652720646f6d696e616e742d626173656c696e653d276d6964646c652720746578742d616e63686f723d276d6964646c65273e",
  "linkReferences": {},
  "deployedLinkReferences": {}
}